:060000008031AB2D000071
:080008008301803140017708FB
:10001000A0007808A1007908A2007A08A300500186
:100020001A084001A40050011B084001A50050011E
:100030001C084001A60050011D084001A700073020
:1000400085001A308400001C2B28073085001030F2
:100050008400001850280730850019308400801F64
:100060003728073085000F308400801B5228200875
:10007000F7002108F8002208F9002308FA002408F4
:1000800050019A004001250850019B0040012608BC
:1000900050019C004001270850019D0009004001CB
:1000A0008031562A8031B32A0B000034C1348134A8
:1000B00040340134C034803441340134C03480349D
:1000C00041340034C134813440340134C03480348C
:1000D00041340034C134813440340034C13481347B
:1000E00040340134C034803441340134C03480346D
:1000F00041340034C134813440340034C13481345B
:1001000040340134C034803441340034C13481344B
:1001100040340134C034803441340134C03480343C
:1001200041340034C134813440340134C03480342B
:1001300041340034C134813440340034C13481341A
:1001400040340134C034803441340034C13481340B
:1001500040340134C034803441340134C0348034FC
:1001600041340034C134813440340034C1348134EA
:1001700040340134C034803441340134C0348034DC
:1001800041340034C134813440340134C0348034CB
:1001900041340034C134813440340034C1348134BA
:1001A00040340134C034803441340134C0348034AC
:1001B00041340034C134813440340034C13481349A
:1001C00040340134C034803441340034C13481348B
:1001D00040340134C034803441340134C03480347C
:1001E00041340034C134813440340034C13481346A
:1001F00040340134C034803441340134C03480345C
:1002000041340034C134813440340134C03480344A
:1002100041340034C134813440340034C134813439
:1002200040340134C034803441340034C13481342A
:1002300040340134C034803441340134C03480341B
:1002400041340034C134813440340134C03480340A
:1002500041340034C134813440340034C1348134F9
:1002600040340134C034803441340134C0348034EB
:1002700041340034C134813440340034C1348134D9
:1002800040340134C034803441340034C1348134CA
:1002900040340134C034803441340134C0348034BB
:1002A00041340034C134813440340B000034C03454
:1002B000C1340134C33403340234C234C634063486
:1002C0000734C7340534C534C4340434CC340C3456
:1002D0000D34CD340F34CF34CE340E340A34CA3416
:1002E000CB340B34C93409340834C834D834183406
:1002F0001934D9341B34DB34DA341A341E34DE3486
:10030000DF341F34DD341D341C34DC341434D43475
:10031000D5341534D73417341634D634D234123495
:100320001334D3341134D134D0341034F034303465
:100330003134F1343334F334F23432343634F63485
:10034000F7343734F53435343434F4343C34FC3455
:10035000FD343D34FF343F343E34FE34FA343A3415
:100360003B34FB343934F934F83438342834E83445
:10037000E9342934EB342B342A34EA34EE342E3485
:100380002F34EF342D34ED34EC342C34E434243475
:100390002534E5342734E734E63426342234E23495
:1003A000E3342334E13421342034E034A0346034A5
:1003B0006134A1346334A334A23462346634A63485
:1003C000A7346734A53465346434A4346C34AC3455
:1003D000AD346D34AF346F346E34AE34AA346A3415
:1003E0006B34AB346934A934A83468347834B83405
:1003F000B9347934BB347B347A34BA34BE347E3485
:100400007F34BF347D34BD34BC347C34B434743474
:100410007534B5347734B734B63476347234B23494
:10042000B3347334B13471347034B03450349034E4
:100430009134513493345334523492349634563484
:100440005734973455349534943454349C345C3454
:100450005D349D345F349F349E345E345A349A3414
:100460009B345B3499345934583498348834483444
:10047000493489344B348B348A344A344E348E3484
:100480008F344F348D344D344C348C344434843474
:100490008534453487344734463486348234423494
:1004A000433483344134813480344034EF0A4E0184
:1004B000101040018031400137284E018F1F5E2A05
:1004C00054011D084001A90054011908F800400119
:1004D000A91C6D2A54011D121D164001080041017E
:1004E0003908F7003A08F800F9010310F70DF80D84
:1004F000F90D0310F70DF80DF90D0310F70DF80DB8
:10050000F90D0310F70DF80DF90D0310F70DF80DA7
:10051000F90D79084001EF00780844018D00770853
:100520008C0040010800AA104101381C9A2A4001A1
:10053000AA144101BA01B90140016F22080041012A
:1005400025083806B900390840015420F800410157
:1005500024087806A500390840015521F80041011A
:10056000A400400108005D2278084101B600400166
:100570002A18F02AF008031DC82AFF304101A500FF
:10058000A40036084001AB00F00AAC01AE01E62A37
:10059000700BD02A410136084001AD00F00AE62A6E
:1005A0007008023C031DE62A2C083F3C0318DA2A97
:1005B0003F30AC000F302C0784002030850003183A
:1005C000850A4101360880004001AC0A0130410132
:1005D000B8004001932241013608B80040019F2233
:1005E0004101A301A2012730A1001030A0004E015B
:1005F0008F134001803140013728CD376431F53900
:100600002029731AB81A2029D42A20050000C33AD9
:1006100072396537741D20000D050D050001BC16EB
:100620002A15453CE332703AE9376E10252C2A151D
:100630002D1F0D050D0500005537693A3A100001D0
:100640000D050D050001BC162A15453CE332703A34
:10065000E9376E10252C2A152D1F0D050D050001FB
:10066000D037F732721D20000D050D050001BC16B4
:100670002A15453CE332703AE9376E10252C2A15CD
:100680002D1F0D050D050001D6376C3AE133651DB0
:1006900020000D050D050001BC162A15453CE3326E
:1006A000703AE9376E10252C2A152D1F0D050D0502
:1006B00000004E018F1F602B40015D22592B4E011F
:1006C000540119084E0199174001080000105923E0
:1006D000C0308B048031092E0B088B1350011E1380
:1006E0001E1400000000891B8B171C087F3903199A
:1006F000BC2B4101AB0050011A084101AC00500174
:100700001B084101AD002B084E010F1E852B420135
:100710009A0041012C0850019A0041012D08500116
:100720009B000B088B131E131E1400000000891B76
:100730008B171C0D1D0D7F390319BC2B4101AB001C
:1007400050011A084101AC0050011B084101AD00E5
:100750002B084E010F1EAA2B42019A0041012C08C2
:1007600050019A0041012D0850019B009A0A03197B
:100770009B0A40016C2B500140010800203085008D
:100780006030840000080319D22B0230F800F70112
:10079000F70BC82BF80BC72B9730F700F70BCE2BB6
:1007A000800BC52B080008304101B202031CE52B69
:1007B00020308500623084000310800C000803198B
:1007C000E52BE32B0000800BE22B400108004101E8
:1007D00030084E010F1FEA2B54019A004001A80176
:1007E0008B1BA8178B1341013008B80040019F22D2
:1007F000A81B8B1702304101B100CE30B20040017E
:10080000D3234101B10BFD2B400108004101290810
:10081000AE000430AF00FF30A500A40040012A1054
:100820004E01991301304101B0004001BE23023056
:100830004101B000E330B2004001D3234101B00BCD
:100840001A2C2E08B0004001E72341012F08B00008
:100850004001E72341012B08AE00B0004001E7232F
:1008600041012A08AE00B0004001E72341012D08F4
:10087000AE00B0004001E72341012C08AE00B000FB
:100880004001E72341012508AF002408AE002F08EE
:10089000B0004001E72341012E08B0004001E723EA
:1008A00054019E1C512C01304101B0004001BE2377
:1008B00002304101B000E330B2004001D3234101D6
:1008C000B00B5B2C40015923FF304101A500A4006F
:1008D0004001AA104101A90803191B2D4001AA1CBF
:1008E000DE2C6F08F80044010D08FA000C08F70030
:1008F0000D087A02031D742C77084E011A10F900B6
:1009000040016F0878020319912C44010D08FA0088
:100910000C08F7000D087A02031D862C7708932C2B
:10092000400179084401F7007A08F80040016F0897
:10093000F900F90CF80CF70CF90CF80CF70CF90CA1
:10094000F80CF70CF90CF80CF70CF90CF80CF70C88
:100950004E011A1478084101AF007708AE00AF08C5
:10096000031DB82C2E08283C031CB82C4001DE2C9B
:100970007008023C031DCC2CA408031DCC2CA50838
:10098000031DCC2C40012A1CC72C4101CC2C023069
:10099000AC022A14CE2C410140012A10FF30410143
:1009A000A500A400F0014001A8018B1BA8178B1320
:1009B0004101B80140019322A81B8B172A18E42C8F
:1009C0000030F800ED2CEA2CAD1FEA2C2F08AE0009
:1009D0000130AC002A100130F800F808031D0A2D80
:1009E000FF304101A007031CA107031CA207031C41
:1009F000A307A008031D072DA108031D072DA208AA
:100A0000031D072DA308031D072D40010A2D082DE6
:100A10006E2C40014101A008031D1B2DA108031DE0
:100A20001B2DA208031D1B2DA308031D1B2D0C301D
:100A30004001AE004101A301A2012730A100103006
:100A4000A00040012E08F80008004101AB1B3C2D1E
:100A50000F30F7002A0EF7050A3077020318332DFE
:100A60003030F707352D2B08F70777084E010F1E9A
:100A7000372D42019A0041010F30AA050A302A029F
:100A80000318442D3030462DAB132B08AA072A0833
:100A90004E010F1E492D42019A00400108000B082B
:100AA0008B1350011E131E1400000000891B8B17AE
:100AB0000318842D1C087F394101AB0050011A082E
:100AC0004101AC0050011B084101AD002B084E0153
:100AD0000F1E682D42019A0041012C0850019A0016
:100AE00041012D0850019B000B088B131E131E148F
:100AF00000000000891B8B174101A90B802D822D5E
:100B00005001842DA92D50011C0D1D0D7F3941016F
:100B1000AB0050011A084101AC0050011B08410113
:100B2000AD002B084E010F1E932D42019A0041018A
:100B30002C0850019A0041012D0850019B009A0A8F
:100B400003199B0A03104101A90BA72DA92D4001F0
:100B50004F2D4001080055307D018F00AA308F00D5
:100B60000F101530CB001630CD000F307E01A400E1
:100B70001130A70055307D018F00AA308F000F146F
:100B8000510192018F0191010330930060308D007B
:100B90004001A90142019F1510309B0000309C00CC
:100BA000A6309E0090309D0040012A10EF010130D8
:100BB0004401910033308E008F0190018C018D0132
:100BC0008C014E0110101A1454019F1540309B00E7
:100BD00003309C00A6309E0090309D004001AA107A
:100BE0004101A301A2012730A1001030A000F001B3
:100BF000A701A6017E01B801C301CE0153019101F5
:100C00009201930190019501960197019401400191
:100C1000662BFD3050019A0002309B0040016C238E
:100C200008304101A900FA30B0004001BE23410163
:100C3000A90B132EC830B0004001BE230130410182
:100C4000A900AB010630AA00AD010230AC004001A2
:100C50000624F808031D5B2E073050019A0003306C
:100C60009B0040016C2301304101A80040012C0889
:100C7000410128020318532E0F302807840020302A
:100C800085000318850A0008A900AA003730AB00C8
:100C90004001252520304E010F1E4C2E42019A00A6
:100CA0004101A80A362E0C3050019A0003309B00F7
:100CB00040016C23782E0F3050019A0003309B00C6
:100CC00003100E304101A90040014F252E084101BB
:100CD000AA003730AB0040012525173050019A009B
:100CE00003309B00031008304101A90040014F254B
:100CF000C8304101B0004001BE2301304101A900CC
:100D0000AB005630AA00AD010230AC004001062411
:100D1000F808031DBA2E1C3050019A0003309B00C6
:100D200040016C2301304101A80040012C08410121
:100D300028020318B22E0F302807840020308500C7
:100D40000318850A0008A900AA003730AB0040014B
:100D5000252520304E010F1EAB2E42019A00410185
:100D6000A80A952E203050019A0003309B004001C4
:100D70006C23D72E233050019A0003309B000310C0
:100D80000E304101A90040014F252E084101AA0063
:100D90003730AB00400125252B3050019A0003303D
:100DA0009B00031008304101A90040014F25C830C5
:100DB0004101B0004001BE2301304101A900AB0157
:100DC0000C30AA00AD010230AC0040010624F80846
:100DD000031D192F303050019A0003309B00400151
:100DE0006C2301304101A80040012C084101280278
:100DF0000318112F0F3028078400203085000318B6
:100E0000850A0008A900AA003730AB00400125255B
:100E100020304E010F1E0A2F42019A004101A80AFC
:100E2000F42E343050019A0003309B0040016C23B3
:100E3000362F373050019A0003309B0003100E30DC
:100E40004101A90040014F252E084101AA00373079
:100E5000AB00400125253F3050019A0003309B0034
:100E6000031008304101A90040014F25C83041015D
:100E7000B0004001BE2301304101A900AB01AA012D
:100E8000AD010230AC0040010624F808031D772FA5
:100E9000443050019A0003309B0040016C23013024
:100EA0004101A80040012C084101280203186F2FBE
:100EB0000F3028078400203085000318850A0008B9
:100EC000A900AA003730AB004001252520304E0193
:100ED0000F1E682F42019A004101A80A522F493083
:100EE00050019A0003309B0040016C23942F4C303A
:100EF00050019A0003309B0003100E304101A900FD
:100F000040014F252E084101AA003730AB004001B7
:100F10002525543050019A0003309B0003100830FF
:0E0F20004101A90040014F2541011A2E630036
:020000040001F9
:0A000E008C3FFD3F9F3FFF3FFF3F87
:00000001FF
;PIC16F15345
;CRC=434A  CREATED="16-Dec-17 18:09"
